:100000003DC0000057C0000055C0000053C00000B4
:1000100051C000004FC000004DC000004BC00000A8
:1000200049C0000047C0000045C0000043C00000B8
:1000300041C000003FC000003DC0000017C10000EB
:1000400039C0000037C0000035C0000033C00000D8
:1000500031C000002FC000002DC000002BC00000E8
:1000600029C0000027C0000025C0000023C00000F8
:1000700021C000001FC000001DC0000011241FBED1
:10008000CFEFCDBFDFE3DEBF809140008093400023
:10009000811105C098ED21E094BF209341008CBBF5
:1000A00028E3A0E0B8E301C01D92AA30B207E1F74F
:1000B0000CD19BC1A5CF9FB7F89488E08093840AA8
:1000C00080918E0A81FFFCCF80918D0AE091A20A77
:1000D000F091A30A20910038309101384091023804
:1000E000509103389FBF80FF07C0E730F10520F42F
:1000F0002F5F3F4F4F4F5F4FBF0176956795CF0101
:10010000860F911DE62FE695E695762F72957F7006
:10011000E71BFF0B67FD3196E80FF91FA0E3B3E083
:100120004BD16E0F7F1F811D911D0895CF92DF92DD
:10013000EF92FF92CF93DF936B017C01BCDFEB0169
:10014000BADF6C1B7D0B683E7340A0F0C114D10474
:10015000E104F10439F4DF91CF91FF90EF90DF904B
:10016000CF90089581E0C81AD108E108F108C8517C
:10017000DC4FE6CFC114D104E104F10409F7EBCF61
:10018000CF93DF93282F30E0E901CE5EDB478881F3
:100190008F3F71F1A9014A5F5B47DA01EC91B0E250
:1001A000EB9FF0011124FC5F611125C086839081D3
:1001B0008923A1F4C90186509C47DC019C913097AA
:1001C000E1F09830D0F47096E90FF11D9FB7F894E4
:1001D0008081611115C0877F80839FBF22513C477A
:1001E000F9018081882321F0803161F08038E1F0CD
:1001F000DF91CF9108958583DACFF0E0E0E0E6CF9C
:100200008860EACF8881DA019C91913059F4853079
:1002100010F0880F82959091010A80958923809330
:10022000010AE6CF880FF7CF1092A006E1CF90E049
:10023000FC01EE5EFB4720812F3FA9F0FC01EA5F45
:10024000FB47E08130E2E39FF0011124FC5F66236D
:1002500059F0218386509C47DC018C91E80FF11DF9
:100260008089877F808B08952283F4CF8F9381E0EC
:1002700080938D0A8FB78F93EF93FF93E0E0F8E3BD
:100280009F9368948FEF0DC0E89484819581805D81
:100290009C4F84839583885E934080F0848395830C
:1002A0008FEF9081981B919390819F4F91939081B4
:1002B0009F4F919390819F4F919336F39F91FF9120
:1002C000EF918F918FBF8F91189588ED90E084BF4B
:1002D00090936100E0E0F6E083E582838DE0858322
:1002E00080E2838381E08083109202028093030A7C
:1002F0009EEF9093260A9093270A9BE09093000A22
:10030000E0E8FAE02DEF31E026A737A7118290E868
:100310009283848781E18083789461E083E087DF42
:1003200061E086E084DF61E087E081DF61E081E019
:100330007EDF61E082E07BDF60E084E078DF61E027
:1003400086E01EDF61E087E01BDF60ED77E080E0A4
:1003500090E0ECDE61E081E013DF61E082E010DF3D
:1003600060ED77E080E090E0E1DE61E083E008DFCF
:1003700068E873E180E090E0D9DE60E083E000DFD0
:1003800060ED77E080E090E0D1DE60E081E0F8DED3
:1003900060E082E0F5DE60ED77E080E090E0C6DED0
:1003A00060E086E0EDDE60E087E0EADE68EE73E0C4
:1003B00080E090E0BBDEC3CF09D0A59F900DB49F35
:1003C000900DA49F800D911D11240895A29FB0014E
:1003D000B39FC001A39F700D811D1124911DB29F79
:0E03E000700D811D1124911D0895F894FFCF1A
:1003EE001010800000101010000010000405060709
:1003FE0003020100010203000000000001010101DF
:10040E0000000000102040800804020102040801D0
:00000001FF
